S00B000050574D2E7372656325
S11300000C942A000C943C000C943C000C943C008E
S11300100C943C000C943C000C943C000C943C006C
S11300200C943C000C94DC000C943C000C943C00BC
S11300300C943C000C943C000C943C000C943C004C
S11300400C943C000C943C000C943C000C943C003C
S11300500C943C0011241FBECFE5D4E0DEBFCDBF1D
S113006020E0A0E6B0E001C01D92A236B207E1F79D
S11300700E94A7000C9413010C9400000E944A00F3
S11300800E945100882319F00E949F0008950E9445
S1130090A300089560E084E40E94610080936000FE
S11300A0089580916000882319F0833021F006C000
S11300B080E090E0089583E090E0089581E090E08E
S11300C008958234A9F018F4813431F035C08334B2
S11300D0D9F0843429F130C029B381E090E002C022
S11300E0880F991F6A95E2F730E0822393230895DD
S11300F026B381E090E002C0880F991F6A95E2F769
S113010030E082239323089523B381E090E002C07A
S1130110880F991F6A95E2F730E0822393230895AC
S113012020B381E090E002C0880F991F6A95E2F73E
S113013030E082239323089580E090E0089582E3E1
S11301400E94AD00089580E00E94AD00089583E010
S11301500E94BC000E943E00FDCF853648F4982FD3
S113016080E064E670E00E94EB0060936100089513
S113017080E88093610008958330E9F481E089BFC9
S1130180BB9A80E88CBF83B7886083BF83B78064E1
S113019083BF83B7816083BF83B78D7F83BF83B7FA
S11301A0846083BF83B78F7E83BF83B7806283BF3E
S11301B08FB780688FBF08951F920F920FB60F926A
S11301C011248F93809161008CBF8F910F900FBE8B
S11301D00F901F90189597FB072E16F4009407D0E4
S11301E077FD09D00E94FF0007FC05D03EF49095EE
S11301F081959F4F0895709561957F4F0895AA1B2F
S1130200BB1B51E107C0AA1FBB1FA617B70710F0FD
S1130210A61BB70B881F991F5A95A9F7809590952F
S10D0220BC01CD010895F894FFCF4E
S9030000FC
