:100000000C942A000C9447000C9447000C94470071
:100010000C9447000C9447000C9447000C94470044
:100020000C9447000C9447000C94FE000C9447007D
:100030000C9447000C9447000C9447000C94470024
:100040000C9447000C9447000C9447000C94470014
:100050000C94470011241FBECFE5D4E0DEBFCDBF16
:1000600010E0A0E6B0E0ECE3F2E002C005900D92F3
:10007000A236B107D9F720E0A2E6B0E001C01D9298
:10008000A536B207E1F70E94D6000C941C010C942F
:1000900000000E94F900813329F460E083E40E94AB
:1000A000CE000895803321F460E083E40E94D20002
:1000B00008958FEF81BB8ABB84BB0895823419F108
:1000C00018F4813439F008958334B1F1843409F49B
:1000D0004CC00895442359F02BB381E090E002C056
:1000E000880F991F6A95E2F7822B8BBB08952BB37B
:1000F00081E090E002C0880F991F6A95E2F7809531
:1001000082238BBB0895442359F028B381E090E00B
:1001100002C0880F991F6A95E2F7822B88BB089569
:1001200028B381E090E002C0880F991F6A95E2F73A
:100130008095822388BB0895442359F025B381E03C
:1001400090E002C0880F991F6A95E2F7822B85BB69
:10015000089525B381E090E002C0880F991F6A9549
:10016000E2F78095822385BB0895442359F022B39A
:1001700081E090E002C0880F991F6A95E2F7822B18
:1001800082BB089522B381E090E002C0880F991FDE
:100190006A95E2F78095822382BB089541E00E9430
:1001A0005E00089540E00E945E0008950E9459009C
:1001B00080E00E94DE000E944900FDCF18BA8093C3
:1001C0006400813051F487B3806B87BBC49A1EB83A
:1001D00081ED8DB980E88FBF089587B3816487BBB7
:1001E00087B38F7487BB1EB881EC8DB980E88FBF51
:1001F0000895109263008091620008951F920F92FB
:100200000FB60F9211248F9380916300811104C067
:100210008FB1809362000AC0813041F48091640004
:10022000813009F4C49A81E0809360008F910F902F
:0C0230000FBE0F901F901895F894FFCFA0
:02023C000100BF
:00000001FF
