:100000000C942A000C9447000C9447000C94470071
:100010000C9447000C9447000C9447000C94470044
:100020000C9447000C9447000C9447000C94470034
:100030000C9447000C9447000C9447000C94470024
:100040000C9447000C9447000C9447000C946804EF
:100050000C94470011241FBECFE5D4E0DEBFCDBF16
:1000600010E0A0E6B0E0E8E7F9E002C005900D92EC
:10007000A636B107D9F720E0A6E6B0E001C01D9290
:10008000A537B207E1F70E94ED030C94BA040C9473
:100090000000CF93DF93CDB7DEB72A970FB6F89461
:1000A000DEBF0FBECDBF60E670E080E590E00E944D
:1000B0002802BE016F5F7F4F80E590E00E946502DD
:1000C0002A960FB6F894DEBF0FBECDBFDF91CF9159
:1000D000089584E40E9432040895CF92DF92EF9253
:1000E000FF920F931F93CF93DF93CDB7DEB72A977D
:1000F0000FB6F894DEBF0FBECDBF0E94420481341C
:1001000009F044C064E084E40E94E0030E944204D9
:10011000833099F028F4813051F0823059F036C0A4
:100120008B3089F08C3091F0843081F509C081E00A
:1001300082BB2CC082E082BB29C083E082BB26C088
:1001400084E082BB23C08BE082BB20C08CE082BBFA
:10015000BE016F5F7F4F80E590E00E946502C82E70
:10016000D12CCE0101967C0100E010E0F7018191D5
:100170007F010E9432048FEC97E00197F1F700C0F5
:1001800000000F5F1F4FC016D10684F764E084E4BF
:100190000E94E0032A960FB6F894DEBF0FBECDBFD3
:1001A000DF91CF911F910F91FF90EF90DF90CF9053
:1001B00008959FEF94BB15BA80EF8ABB1BBA87B333
:1001C000836087BB91BB12BA0895823459F018F44A
:1001D000813431F00DC0833439F0843439F008C0F3
:1001E00089B3089586B3089583B3089580B30895BD
:1001F00080E00895623419F118F4613439F00895FB
:100200006334B1F1643409F44CC00895882359F083
:100210002BB381E090E002C0880F991F4A95E2F766
:10022000822B8BBB08952BB381E090E002C0880F36
:10023000991F4A95E2F7809582238BBB0895882306
:1002400059F028B381E090E002C0880F991F4A95C9
:10025000E2F7822B88BB089528B381E090E002C0CA
:10026000880F991F4A95E2F78095822388BB0895ED
:10027000882359F025B381E090E002C0880F991FD0
:100280004A95E2F7822B85BB089525B381E090E083
:1002900002C0880F991F4A95E2F78095822385BB9B
:1002A0000895882359F022B381E090E002C0880FBE
:1002B000991F4A95E2F7822B82BB089522B381E011
:1002C00090E002C0880F991F4A95E2F7809582233B
:1002D00082BB0895623479F018F4613431F00895E6
:1002E000633479F0643499F00895882311F08BBB5E
:1002F00008951BBA0895882311F088BB089518BA91
:100300000895882311F085BB089515BA08958823B0
:1003100011F082BB089512BA08950E948F040895C7
:100320001F93CF93DF93EC01162F0E94990488E06E
:100330000E94A904813031F59E0122273770220FD7
:10034000232F221F330B822F806A809374000E9418
:10035000A20488E10E94A9048130B1F48C2F0E948C
:10036000A20488E20E94A904813081F4812F0E94B6
:10037000A20488E20E94A904C82F813049F40E9497
:100380009F0407C0C0E005C0C0E003C0C0E001C0DA
:10039000C0E08C2FDF91CF911F910895EF92FF92D3
:1003A0000F931F93CF938C017B010E94990488E0E7
:1003B0000E94A9048130D1F5980122273770220FBD
:1003C000232F221F330BC22FC06AC09374008C2FBF
:1003D0000E94A20488E10E94A904813049F5802F7F
:1003E0000E94A20488E20E94A904813019F50E94AB
:1003F000990480E10E94A9048130F1F48C2F81607E
:10040000809374000E94A20480E40E94A9048130B9
:10041000A9F40E94B004F701808388E50E94A90432
:10042000C82F813069F40E949F040BC0C0E009C04E
:10043000C0E007C0C0E005C0C0E003C0C0E001C02C
:10044000C0E08C2FCF911F910F91FF90EF900895F6
:10045000EF92FF920F931F93CF93DF93EB0168818D
:100460006623D9F0219600E010E07C012FEFE21A1C
:10047000F20A0E949001882309F18FEF90E722E0B1
:10048000815090402040E1F700C000000F5F1F4FF7
:100490006991C7016111E9CF03C07C0100E010E060
:1004A00060E0C7010E9490018FEF90E722E0815049
:1004B00090402040E1F700C00000802FDF91CF91F5
:1004C0001F910F91FF90EF900895CF92DF92EF92DE
:1004D000FF920F931F93CF93DF936C01EB0100E02A
:1004E00010E07E01BE01C8018C0D9D1D0E94CE0151
:1004F000882349F021960F5F1F4FF70190819111DA
:10050000F0CF8FEF800FDF91CF911F910F91FF9070
:10051000EF90DF90CF900895CF93C82F9091660011
:10052000992319F0913031F171C040E062E480E02C
:100530000E94FA0061E48C2F0E946A0141E062E4AB
:1005400080E00E94FA0040E062E481E00E94FA004C
:100550008FEC97E00197F1F700C0000040E062E403
:1005600080E00E94FA008FED9EE20197F1F700C053
:1005700000004CC040E062E480E00E94FA0081E4A8
:100580000E94E5008F709C2F907F61E4892B0E9470
:100590006A0141E062E480E00E94FA0040E062E427
:1005A00081E00E94FA008FEC97E00197F1F700C01C
:1005B000000040E062E480E00E94FA008FED9EE2DD
:1005C0000197F1F700C0000081E40E94E5008F7000
:1005D00090E1C99F9001112461E4822B0E946A017D
:1005E00040E062E481E00E94FA008FEC97E001971E
:1005F000F1F700C0000040E062E480E00E94FA00F1
:100600008FED9EE20197F1F700C00000CF910895B1
:10061000EFE3FCE93197F1F700C00000809366003A
:10062000882319F08130D1F0089580E30E948C0274
:1006300088E30E948C028EE00E948C0286E00E9479
:100640008C0281E00E948C028FE99FE00197F1F714
:1006500000C0000080E80E948C02089582E00E94A1
:100660008C0288E20E948C028EE00E948C0286E05E
:100670000E948C0281E00E948C02EFE9FFE031973A
:10068000F1F700C0000080E80E948C020895CF932B
:10069000C82F90916600992319F0913031F171C003
:1006A00040E062E480E00E94FA0061E48C2F0E9446
:1006B0006A0141E062E481E00E94FA0040E062E405
:1006C00081E00E94FA008FEC97E00197F1F700C0FB
:1006D000000040E062E480E00E94FA008FEC97E0C6
:1006E0000197F1F700C000004CC040E062E480E0F8
:1006F0000E94FA0081E40E94E5008F709C2F907F99
:1007000061E4892B0E946A0141E062E481E00E9479
:10071000FA0040E062E481E00E94FA008FEC97E08A
:100720000197F1F700C0000040E062E480E00E9421
:10073000FA008FEC97E00197F1F700C0000040E06D
:1007400062E481E00E94FA0081E40E94E5008F707B
:1007500090E1C99F9001112461E4822B0E946A01FB
:100760008FEC97E00197F1F700C0000040E062E4F1
:1007700080E00E94FA008FEC97E00197F1F700C04B
:100780000000CF910895CF93C62F462F682F81E0A8
:100790000E94FA00EC2FF0E0E959FF4F81E08083DE
:1007A000CF910895CF93C62F462F682F80E00E94E7
:1007B000FA00EC2FF0E0E959FF4F1082CF91089535
:1007C000E62FF0E0E959FF4F9081992319F00E943C
:1007D000D20308950E94C30308950E94F8030E9463
:1007E0000B04FDCF809170008F5F8093700008959F
:1007F0000E94D90082EF93E00E944C0481E00E94A5
:10080000080381E00E941E040E948D010E9449009D
:100810000E94690008958091700080FD0EC0909143
:100820006F00891751F00E946D0064E084E40E941B
:10083000E0038091700080936F00089580937100B1
:10084000882319F0813041F00BC087B3806B87BBE0
:10085000C49ABE986C9A04C0BE9A87B38F7487BB43
:100860006E9A0895CF93DF931F92CDB7DEB78FB9FD
:10087000779BFECF0E9447038FB189830F90DF9152
:10088000CF91089580917100811102C08FEF8FB9CF
:10089000779BFECF8FB1089523B7216023BF23B785
:1008A0002D7F23BF23B7246023BF29B7226029BF30
:1008B00023B72F7B23BF23B7286023BF2AE02CBF99
:1008C0002FB720682FBF9093730080937200089514
:1008D0001F920F920FB60F9211242F933F934F93B5
:1008E0005F936F937F938F939F93AF93BF93EF9398
:1008F000FF93E0917200F09173000995FF91EF91E1
:10090000BF91AF919F918F917F916F915F914F9127
:100910003F912F910F900FBE0F901F90189588E177
:1009200080B981B181B98AE081B986B7846086BF18
:10093000089584EA86BF06B607FEFDCF089584E9D0
:1009400086BF089583B984E886BF06B607FEFDCF4B
:10095000089591B1987F21E0981320E0822F0895A7
:1009600086B78F7B86BF84E886BF06B607FEFDCFBD
:0809700083B10895F894FFCF54
:06097800313233340000AF
:00000001FF
