:100000000C942A000C943C000C943C000C943C0092
:100010000C943C000C943C000C943C000C943C0070
:100020000C943C000C9457000C943C000C943C0045
:100030000C943C000C943C000C943C000C943C0050
:100040000C943C000C943C000C943C000C943C0040
:100050000C943C0011241FBECFE5D4E0DEBFCDBF21
:1000600020E0A0E6B0E001C01D92A136B207E1F7A2
:100070000E943E000C9472000C9400008FEF84BB31
:1000800015BA83B7816083BF83B78D7F83BF83B782
:10009000846083BF89B7816089BF8FB780688FBF55
:1000A00083B78F7B83BF83B7877F83BFFFCF1F92C9
:1000B0000F920FB60F9211248F93809160008A30B7
:1000C00038F485BB809160008F5F8093600004C02E
:1000D00015BA81E0809360008F910F900FBE0F9052
:0800E0001F901895F894FFCF62
:00000001FF
