:100000000C942A000C9447000C9447000C94470071
:100010000C9447000C9447000C9447000C94470044
:100020000C9447000C9447000C94AF020C944700CA
:100030000C9447000C9447000C9447000C94470024
:100040000C9447000C9447000C9447000C94470014
:100050000C94470011241FBECFE5D4E0DEBFCDBF16
:1000600010E0A0E6B0E0E2E6FBE002C005900D92F1
:10007000AC36B107D9F720E0ACE6B0E001C01D9284
:10008000A037B207E1F70E9482020C94AF050C94EE
:1000900000009FEF94BB15BA80EF8ABB1BBA87B3F1
:1000A000836087BB91BB12BA0895823459F018F46B
:1000B000813431F00DC0833439F0843439F008C014
:1000C00089B3089586B3089583B3089580B30895DE
:1000D00080E00895623419F118F4613439F008951C
:1000E0006334B1F1643409F44CC00895882359F0A5
:1000F0002BB381E090E002C0880F991F4A95E2F788
:10010000822B8BBB08952BB381E090E002C0880F57
:10011000991F4A95E2F7809582238BBB0895882327
:1001200059F028B381E090E002C0880F991F4A95EA
:10013000E2F7822B88BB089528B381E090E002C0EB
:10014000880F991F4A95E2F78095822388BB08950E
:10015000882359F025B381E090E002C0880F991FF1
:100160004A95E2F7822B85BB089525B381E090E0A4
:1001700002C0880F991F4A95E2F78095822385BBBC
:100180000895882359F022B381E090E002C0880FDF
:10019000991F4A95E2F7822B82BB089522B381E032
:1001A00090E002C0880F991F4A95E2F7809582235C
:1001B00082BB0895623479F018F4613431F0089507
:1001C000633479F0643499F00895882311F08BBB7F
:1001D00008951BBA0895882311F088BB089518BAB2
:1001E0000895882311F085BB089515BA08958823D2
:1001F00011F082BB089512BA0895CF93C82F909141
:100200006C00992319F0913031F171C040E062E443
:1002100080E00E946A0061E48C2F0E94DA0041E0D5
:1002200062E480E00E946A0040E062E481E00E94B3
:100230006A008FEC97E00197F1F700C0000040E002
:1002400062E480E00E946A008FED9EE20197F1F780
:1002500000C000004CC040E062E480E00E946A0000
:1002600081E40E9455008F709C2F907F61E4892B60
:100270000E94DA0041E062E480E00E946A0040E00F
:1002800062E481E00E946A008FEC97E00197F1F749
:1002900000C0000040E062E480E00E946A008FED50
:1002A0009EE20197F1F700C0000081E40E94550032
:1002B0008F7090E1C99F9001112461E4822B0E940C
:1002C000DA0040E062E481E00E946A008FEC97E08F
:1002D0000197F1F700C0000040E062E480E00E9476
:1002E0006A008FED9EE20197F1F700C00000CF9108
:1002F0000895EFE3FCE93197F1F700C00000809327
:100300006C00882319F08130D1F0089580E30E94B9
:10031000FD0088E30E94FD008EE00E94FD0086E063
:100320000E94FD0081E00E94FD008FE99FE001979F
:10033000F1F700C0000080E80E94FD00089582E00F
:100340000E94FD0088E20E94FD008EE00E94FD00F8
:1003500086E00E94FD0081E00E94FD00EFE9FFE0E1
:100360003197F1F700C0000080E80E94FD00089579
:10037000CF93C82F90916C00992319F0913031F1EF
:1003800071C040E062E480E00E946A0061E48C2F6A
:100390000E94DA0041E062E481E00E946A0040E0ED
:1003A00062E481E00E946A008FEC97E00197F1F728
:1003B00000C0000040E062E480E00E946A008FEC30
:1003C00097E00197F1F700C000004CC040E062E404
:1003D00080E00E946A0081E40E9455008F709C2F8B
:1003E000907F61E4892B0E94DA0041E062E481E0C1
:1003F0000E946A0040E062E481E00E946A008FECA3
:1004000097E00197F1F700C0000040E062E480E06F
:100410000E946A008FEC97E00197F1F700C000009E
:1004200040E062E481E00E946A0081E40E9455009D
:100430008F7090E1C99F9001112461E4822B0E948A
:10044000DA008FEC97E00197F1F700C0000040E080
:1004500062E480E00E946A008FEC97E00197F1F778
:1004600000C00000CF910895CF93C82F862F842B12
:100470000E94FD008C2F0E94B801CF9108950F9328
:100480001F93CF93DF93EC01062F8881882351F0CF
:10049000219611E0140F602F0E9434028991412FA0
:1004A0008111F7CFDF91CF911F910F9108950F9395
:1004B0001F93CF93DF9300D000D01F92CDB7DEB74C
:1004C0001F928F9380E690E09F938F938E010F5F32
:1004D0001F4F1F930F930E94D70248E060ECC801A2
:1004E0000E943F020F900F900F900F900F900F906F
:1004F0000F900F900F900F900F90DF91CF911F9161
:100500000F9108950E94490081E00E94790167E5FA
:1005100072E081E00E94930240E060EC83E690E0AC
:100520000E943F02FFCF70936E0060936D00809336
:100530006F00882319F0813041F00FC087B3806BC2
:1005400087BBC49ABE986C9A08C06F9A8FB78068B0
:100550008FBFBE9A87B38F7487BB6E9A08951F9220
:100560000F920FB60F9211242F933F934F935F93E7
:100570006F937F938F939F93AF93BF93EF93FF936B
:100580008FB1E0916D00F0916E000995FF91EF91B0
:10059000BF91AF919F918F917F916F915F914F919B
:1005A0003F912F910F900FBE0F901F901895AEE0C6
:1005B000B0E0EDEDF2E00C9486050D891E8986E031
:1005C0008C831A8309838FEF9FE79E838D83AE010F
:1005D000475E5F4F6F89788DCE0101960E94FA02C7
:1005E0002F813885F801E20FF31F10822E96E4E088
:1005F0000C94A205ACE0B0E0E0E0F3E00C947805E8
:100600007C016B018A01FC0117821682838181FFC4
:10061000BDC1CE0101964C01F7019381F60193FD16
:10062000859193FF81916F01882309F4ABC18532D5
:1006300039F493FD859193FF81916F01853229F4FF
:10064000B70190E00E94E204E7CF512C312C20E06A
:100650002032A0F48B3269F030F4803259F08332CA
:1006600069F420612CC08D3239F0803339F4216077
:1006700026C02260246023C0286021C027FD27C037
:1006800030ED380F3A3078F426FF06C0FAE05F9E6E
:10069000300D1124532E13C08AE0389E300D1124E2
:1006A000332E20620CC08E3221F426FD6BC12064F3
:1006B00006C08C3611F4206802C0883641F4F60179
:1006C00093FD859193FF81916F018111C1CF982F87
:1006D0009F7D9554933028F40C5F1F4FFFE3F983FF
:1006E0000DC0833631F0833771F0833509F05BC07C
:1006F00022C0F801808189830E5F1F4F44244394F8
:10070000512C540115C03801F2E06F0E711CF80134
:10071000A080B18026FF03C0652D70E002C06FEF9E
:100720007FEFC5012C870E94D7042C0183012C8503
:100730002F77222E17C03801F2E06F0E711CF801DE
:10074000A080B18026FF03C0652D70E002C06FEF6E
:100750007FEFC5012C870E94CC042C012C852068DA
:10076000222E830123FC1BC0832D90E048165906DE
:10077000B0F4B70180E290E00E94E2043A94F4CF32
:10078000F50127FC859127FE81915F01B70190E07B
:100790000E94E20431103A94F1E04F1A51084114DA
:1007A000510471F7E5C0843611F0893639F5F80146
:1007B00027FF07C060817181828193810C5F1F4F89
:1007C00008C060817181072E000C880B990B0E5FA9
:1007D0001F4F2F76722E97FF09C0909580957095C8
:1007E00061957F4F8F4F9F4F2068722E2AE030E037
:1007F000A4010E941A05A82EA81844C0853729F420
:100800002F7EB22E2AE030E025C0F22FF97FBF2ED6
:100810008F36C1F018F4883579F0B4C0803719F0FC
:10082000883721F0AFC02F2F2061B22EB4FE0DC04B
:100830008B2D8460B82E09C024FF0AC09F2F9660BC
:10084000B92E06C028E030E005C020E130E002C04B
:1008500020E132E0F801B7FE07C06081718182813A
:1008600093810C5F1F4F06C06081718180E090E032
:100870000E5F1F4FA4010E941A05A82EA818FB2D79
:10088000FF777F2E76FE0BC0372D3E7FA51450F4E8
:1008900074FE0AC072FC08C0372D3E7E05C0BA2C1B
:1008A000372D03C0BA2C01C0B52C34FF0DC0FE019A
:1008B000EA0DF11D8081803311F4397E09C032FFC9
:1008C00006C0B394B39404C0832F867809F0B39420
:1008D00033FD13C030FF06C05A2CB31418F4530C68
:1008E0005B18B32CB31468F4B70180E290E03C8746
:1008F0000E94E204B3943C85F5CFB31410F43B1886
:1009000001C0312C34FF12C0B70180E390E03C8776
:100910000E94E2043C8532FF17C031FD03C088E726
:1009200090E002C088E590E0B7010CC0832F867884
:1009300059F031FF02C08BE201C080E237FD8DE249
:10094000B70190E00E94E204A51438F4B70180E3F7
:1009500090E00E94E2045A94F7CFAA94F401EA0DC1
:10096000F11D8081B70190E00E94E204A110F5CF53
:10097000332009F451CEB70180E290E00E94E204F6
:100980003A94F6CFF7018681978102C08FEF9FEFEF
:100990002C96E2E10C949405FC01059061507040A6
:1009A0000110D8F7809590958E0F9F1F0895FC0138
:1009B0006150704001900110D8F7809590958E0F8E
:1009C0009F1F08950F931F93CF93DF93FB01238104
:1009D00021FD03C08FEF9FEF28C022FF16C0468184
:1009E0005781248135814217530744F4A081B18196
:1009F0009D012F5F3F4F318320838C932681378168
:100A00002F5F3F4F3783268310C0EB01092F182F2C
:100A10000084F185E02D0995892BE1F68E819F8177
:100A200001969F838E83812F902FDF91CF911F910D
:100A30000F910895FA01AA27283051F1203181F150
:100A4000E8946F936E7F6E5F7F4F8F4F9F4FAF4FD6
:100A5000B1E03ED0B4E03CD0670F781F891F9A1FE9
:100A6000A11D680F791F8A1F911DA11D6A0F711D9D
:100A7000811D911DA11D20D009F468943F912AE0A9
:100A8000269F11243019305D3193DEF6CF01089591
:100A9000462F4770405D4193B3E00FD0C9F7F6CFC2
:100AA000462F4F70405D4A3318F0495D31FD40528A
:100AB000419302D0A9F7EACFB4E0A6959795879520
:100AC00077956795BA95C9F70097610571050895FF
:100AD0009B01AC010A2E06945795479537952795AB
:100AE000BA95C9F7620F731F841F951FA01D089543
:100AF0002F923F924F925F926F927F928F929F922E
:100B0000AF92BF92CF92DF92EF92FF920F931F931B
:100B1000CF93DF93CDB7DEB7CA1BDB0B0FB6F894CC
:100B2000DEBF0FBECDBF09942A88398848885F840C
:100B30006E847D848C849B84AA84B984C884DF807D
:100B4000EE80FD800C811B81AA81B981CE0FD11D61
:100B50000FB6F894DEBF0FBECDBFED010895F89437
:020B6000FFCFC5
:0C0B6200256400427574746F6E3A000048
:00000001FF
