:100000000C942A000C9447000C9447000C94470071
:100010000C9447000C9447000C9447000C94470044
:100020000C9447000C9447000C948D010C944700ED
:100030000C9447000C9447000C9447000C94470024
:100040000C9447000C9447000C9447000C94D60184
:100050000C94470011241FBECFE5D4E0DEBFCDBF16
:1000600010E0A0E6B0E0EEEFF3E002C005900D92E4
:10007000A236B107D9F720E0A2E6B0E001C01D9298
:10008000AA36B207E1F70E942B010C94FD010C94F3
:100090000000CF930E946900C82F809162008111F7
:1000A0000DC0C13091F481E30E94A90181110DC0FE
:1000B00081E30E94A9018823D9F307C0813029F484
:1000C000C11103C080E30E94A901C0936200CF91D7
:1000D000089560E084E40E94790021E030E0019717
:1000E00011F020E030E0C901089511BA8FEF84BB10
:1000F00008958234A9F018F4813431F035C0833486
:10010000D9F0843429F130C029B381E090E002C0F5
:10011000880F991F6A95E2F730E0822393230895B0
:1001200026B381E090E002C0880F991F6A95E2F73C
:1001300030E082239323089523B381E090E002C04E
:10014000880F991F6A95E2F730E082239323089580
:1001500020B381E090E002C0880F991F6A95E2F712
:1001600030E082239323089580E090E00895823464
:1001700019F118F4813439F008958334B1F18434DD
:1001800009F44CC00895442359F02BB381E090E06A
:1001900002C0880F991F6A95E2F7822B8BBB0895E6
:1001A0002BB381E090E002C0880F991F6A95E2F7B7
:1001B000809582238BBB0895442359F028B381E0B6
:1001C00090E002C0880F991F6A95E2F7822B88BBE6
:1001D000089528B381E090E002C0880F991F6A95C6
:1001E000E2F78095822388BB0895442359F025B314
:1001F00081E090E002C0880F991F6A95E2F7822B98
:1002000085BB089525B381E090E002C0880F991F57
:100210006A95E2F78095822385BB0895442359F0BF
:1002200022B381E090E002C0880F991F6A95E2F73F
:10023000822B82BB089522B381E090E002C0880F38
:10024000991F6A95E2F78095822382BB089541E069
:100250000E94B70008950E9444010E944E01FDCF04
:10026000809165009091660001969093660080935E
:10027000650081E090E0909364008093630066E005
:1002800082E40E94270108950E94750081E00E9487
:10029000650180E391E00E94BB01089580916300B5
:1002A00090916400019781F48091650090916600BF
:1002B000449731F40E944900109266001092650044
:1002C0001092640010926300089518BA809367003A
:1002D000813051F487B3816B87BBC49A1EB881ED1E
:1002E0008DB980E88FBF0895BE9A87B38F7487BB9E
:1002F0001EB881EC8DB980E88FBF089591E090938E
:10030000600090916700913019F4C4988FB90895F6
:100310008FB908958091600008951F920F920FB6D3
:100320000F9211248F9380916000882349F080916F
:100330006000813029F480916700813009F4C49A0B
:1003400082E0809360008F910F900FBE0F901F90FE
:100350001895CF93C82F0E948A01823049F461E03A
:1003600083E40E9427018C2F0E947E0181E001C05E
:1003700080E0CF910895909369008093680082E0B7
:1003800089BF83B7886083BF83B78F7B83BF83B701
:10039000816083BF83B78D7F83BF83B7846083BF52
:1003A0008AE08CBF8FB780688FBF08951F920F922D
:1003B0000FB60F9211242F933F934F935F936F9338
:1003C0007F938F939F93AF93BF93EF93FF93E091AE
:1003D0006800F09169000995FF91EF91BF91AF918D
:1003E0009F918F917F916F915F914F913F912F914D
:0E03F0000F900FBE0F901F901895F894FFCF3E
:0203FE000200FB
:00000001FF
