:100000000C942A000C9447000C9447000C94470071
:100010000C9447000C9447000C9447000C94470044
:100020000C9447000C9447000C9447000C94470034
:100030000C9447000C9447000C9447000C94470024
:100040000C9447000C9447000C9447000C94EF0369
:100050000C94470011241FBECFE5D4E0DEBFCDBF16
:1000600010E0A0E6B0E0E0E3FEE002C005900D92F3
:10007000A437B107D9F720E0A4E7B0E001C01D9292
:10008000AD39B207E1F70E945D030C9416070C949A
:10009000000040E060E880E690E00E94450340E018
:1000A00060EC89E690E00E94450308950F931F934A
:1000B000CF93DF9300D000D01F92CDB7DEB78091F1
:1000C00076001F928F9381E790E09F938F938E012C
:1000D0000F5F1F4F1F930F930E943E0448E060E89C
:1000E000C8010E944503809176008F5F809376005F
:1000F0000F900F900F900F900F900F900F900F9008
:100100000F900F900F90DF91CF911F910F91089555
:10011000EF92FF921F93CF93DF9300D000D01F92F6
:10012000CDB7DEB760E081E40E94CB00182F80914C
:100130007500813019F5111121C0809174008F5F15
:10014000809374001F928F9381E790E09F938F9329
:10015000CE0101967C019F938F930E943E0448E05C
:1001600060ECC7010E944503809174000E94C303A4
:100170000F900F900F900F900F900F9010937500AD
:100180000F900F900F900F900F90DF91CF911F91D4
:10019000FF90EF900895E62FF0E0E157FF4F808148
:1001A000882319F0833009F081E00895CF93C62F9A
:1001B0000E942A012C2F30E0F901E957FF4F4081BE
:1001C000481313C0D901AA0FBB1FA958BF4FED9107
:1001D000FC9111973196ED93FC93CF0163E070E0B1
:1001E0000E941604892B79F012C0F901E957FF4FDC
:1001F0008083220F331FF901E958FF4F81E090E01F
:100200009183808319C0D901A157BF4F4C93E03926
:10021000F14091F4F901E157FF4F8081813061F4A1
:10022000F901E157FF4F83E08083220F331FF9016B
:10023000E958FF4F11821082CF9108958FE084BB5F
:1002400080EF8ABB1BBA87B3836087BB8FEF81BB0C
:1002500012BA0895823491F018F4813431F029C033
:100260008334A9F08434E1F024C089B390E002C063
:10027000959587956A95E2F78170089586B390E029
:1002800002C0959587956A95E2F78170089583B3CA
:1002900090E002C0959587956A95E2F78170089580
:1002A00080B390E002C0959587956A95E2F78170DA
:1002B000089580E00895823459F018F4813431F0C3
:1002C0000DC0833439F0843439F008C089B30895FF
:1002D00086B3089583B3089580B3089580E00895A8
:1002E000623419F118F4613439F008956334B1F1CE
:1002F000643409F44CC00895882359F02BB381E08D
:1003000090E002C0880F991F4A95E2F7822B8BBBC1
:1003100008952BB381E090E002C0880F991F4A95A1
:10032000E2F7809582238BBB0895882359F028B388
:1003300081E090E002C0880F991F4A95E2F7822B76
:1003400088BB089528B381E090E002C0880F991F10
:100350004A95E2F78095822388BB0895882359F057
:1003600025B381E090E002C0880F991F4A95E2F71B
:10037000822B85BB089525B381E090E002C0880FF1
:10038000991F4A95E2F78095822385BB08958823BB
:1003900059F022B381E090E002C0880F991F4A957E
:1003A000E2F7822B82BB089522B381E090E002C085
:1003B000880F991F4A95E2F78095822382BB0895A2
:1003C000623479F018F4613431F00895633479F0CF
:1003D000643499F00895882311F08BBB08951BBAFB
:1003E0000895882311F088BB089518BA08958823CA
:1003F00011F085BB089515BA0895882311F082BBCA
:10040000089512BA0895CF93C82F90919700992319
:1004100019F0913031F171C040E062E480E00E9457
:10042000700161E48C2F0E94E00141E062E480E011
:100430000E94700140E062E481E00E9470018FEC54
:1004400097E00197F1F700C0000040E062E480E02F
:100450000E9470018FED9EE20197F1F700C000004D
:100460004CC040E062E480E00E94700181E40E94A0
:100470005B018F709C2F907F61E4892B0E94E001CB
:1004800041E062E480E00E94700140E062E481E0CB
:100490000E9470018FEC97E00197F1F700C0000017
:1004A00040E062E480E00E9470018FED9EE20197DF
:1004B000F1F700C0000081E40E945B018F7090E1C1
:1004C000C99F9001112461E4822B0E94E00140E069
:1004D00062E481E00E9470018FEC97E00197F1F7F0
:1004E00000C0000040E062E480E00E9470018FEDF7
:1004F0009EE20197F1F700C00000CF910895EFE36D
:10050000FCE93197F1F700C0000080939700882341
:1005100019F08130D1F0089580E30E94030288E34E
:100520000E9403028EE00E94030286E00E94030202
:1005300081E00E9403028FE99FE00197F1F700C07C
:10054000000080E80E940302089582E00E940302F6
:1005500088E20E9403028EE00E94030286E00E946D
:10056000030281E00E940302EFE9FFE03197F1F717
:1005700000C0000080E80E9403020895CF93C82FB6
:1005800090919700992319F0913031F171C040E0BA
:1005900062E480E00E94700161E48C2F0E94E0011F
:1005A00041E062E481E00E94700140E062E481E0A9
:1005B0000E9470018FEC97E00197F1F700C00000F6
:1005C00040E062E480E00E9470018FEC97E00197C8
:1005D000F1F700C000004CC040E062E480E00E94FF
:1005E000700181E40E945B018F709C2F907F61E419
:1005F000892B0E94E00141E062E481E00E947001E9
:1006000040E062E481E00E9470018FEC97E0019786
:10061000F1F700C0000040E062E480E00E94700159
:100620008FEC97E00197F1F700C0000040E062E432
:1006300081E00E94700181E40E945B018F7090E173
:10064000C99F9001112461E4822B0E94E0018FEC8C
:1006500097E00197F1F700C0000040E062E480E01D
:100660000E9470018FEC97E00197F1F700C0000045
:10067000CF910895CF93C82F862F842B0E94030219
:100680008C2F0E94BE02CF9108950F931F93CF939A
:10069000DF93EC01062F8881882351F0219611E029
:1006A000140F602F0E943A038991412F8111F7CFD7
:1006B000DF91CF911F910F9108950E9468030E94CE
:1006C0007903FDCF809199008F5F80939900089501
:1006D0000E941E0182E693E00E94D30381E00E9403
:1006E0007F0280E00E94AF030E9449000E94D10374
:1006F0000895CF93DF938091990080FD0EC0909173
:100700009800891751F060E081E40E94D6000E94B1
:100710008800809199008093980040919900242F3F
:1007200030E0C90160E971E00E941604892BA1F450
:1007300081E048274170C42F80E0D82F8091980035
:10074000281B31092C2B3D2B232B31F00E94560006
:100750008091990080939800DF91CF9108958093C4
:100760009A00882319F0813041F00BC087B3806B69
:1007700087BBC49ABE986C9A04C0BE9A87B38F7424
:1007800087BB6E9A0895CF93DF931F92CDB7DEB7E4
:100790008FB9779BFECF8FB189830F90DF91CF9177
:1007A0000895C498089523B7216023BF23B72D7FF0
:1007B00023BF23B7246023BF29B7226029BF23B7F3
:1007C0002F7B23BF23B7286023BF2AE02CBF2FB77E
:1007D00020682FBF90939C0080939B0008951F92E8
:1007E0000F920FB60F9211242F933F934F935F9365
:1007F0006F937F938F939F93AF93BF93EF93FF93E9
:10080000E0919B00F0919C000995FF91EF91BF91C1
:10081000AF919F918F917F916F915F914F913F9198
:100820002F910F900FBE0F901F90189597FB072EDA
:1008300016F4009407D077FD09D00E942A0407FC23
:1008400005D03EF4909581959F4F089570956195E0
:100850007F4F0895AA1BBB1B51E107C0AA1FBB1FF6
:10086000A617B70710F0A61BB70B881F991F5A953C
:10087000A9F780959095BC01CD010895AEE0B0E058
:10088000E4E4F4E00C94ED060D891E8986E08C8387
:100890001A8309838FEF9FE79E838D83AE01475EA6
:1008A0005F4F6F89788DCE0101960E9461042F8180
:1008B0003885F801E20FF31F10822E96E4E00C94C5
:1008C0000907ACE0B0E0E7E6F4E00C94DF067C0159
:1008D0006B018A01FC0117821682838181FFBDC1F1
:1008E000CE0101964C01F7019381F60193FD8591AC
:1008F00093FF81916F01882309F4ABC1853239F4EC
:1009000093FD859193FF81916F01853229F4B701A1
:1009100090E00E944906E7CF512C312C20E0203294
:10092000A0F48B3269F030F4803259F0833269F4EC
:1009300020612CC08D3239F0803339F4216026C01B
:100940002260246023C0286021C027FD27C030ED2D
:10095000380F3A3078F426FF06C0FAE05F9E300D7B
:100960001124532E13C08AE0389E300D1124332EEB
:1009700020620CC08E3221F426FD6BC1206406C0BB
:100980008C3611F4206802C0883641F4F60193FDDC
:10099000859193FF81916F018111C1CF982F9F7D28
:1009A0009554933028F40C5F1F4FFFE3F9830DC07B
:1009B000833631F0833771F0833509F05BC022C094
:1009C000F801808189830E5F1F4F44244394512C8A
:1009D000540115C03801F2E06F0E711CF801A080BF
:1009E000B18026FF03C0652D70E002C06FEF7FEF7E
:1009F000C5012C870E943E062C0183012C852F7790
:100A0000222E17C03801F2E06F0E711CF801A08091
:100A1000B18026FF03C0652D70E002C06FEF7FEF4D
:100A2000C5012C870E9433062C012C852068222EBC
:100A3000830123FC1BC0832D90E048165906B0F4B7
:100A4000B70180E290E00E9449063A94F4CFF501A4
:100A500027FC859127FE81915F01B70190E00E94FC
:100A6000490631103A94F1E04F1A510841145104EB
:100A700071F7E5C0843611F0893639F5F80127FFA2
:100A800007C060817181828193810C5F1F4F08C014
:100A900060817181072E000C880B990B0E5F1F4F30
:100AA0002F76722E97FF09C090958095709561956D
:100AB0007F4F8F4F9F4F2068722E2AE030E0A401B5
:100AC0000E948106A82EA81844C0853729F42F7EDD
:100AD000B22E2AE030E025C0F22FF97FBF2E8F36EC
:100AE000C1F018F4883579F0B4C0803719F0883730
:100AF00021F0AFC02F2F2061B22EB4FE0DC08B2D80
:100B00008460B82E09C024FF0AC09F2F9660B92EBA
:100B100006C028E030E005C020E130E002C020E15E
:100B200032E0F801B7FE07C0608171818281938154
:100B30000C5F1F4F06C06081718180E090E00E5F06
:100B40001F4FA4010E948106A82EA818FB2DFF7735
:100B50007F2E76FE0BC0372D3E7FA51450F474FE19
:100B60000AC072FC08C0372D3E7E05C0BA2C372D56
:100B700003C0BA2C01C0B52C34FF0DC0FE01EA0D34
:100B8000F11D8081803311F4397E09C032FF06C027
:100B9000B394B39404C0832F867809F0B39433FDE3
:100BA00013C030FF06C05A2CB31418F4530C5B1852
:100BB000B32CB31468F4B70180E290E03C870E9444
:100BC0004906B3943C85F5CFB31410F43B1801C02B
:100BD000312C34FF12C0B70180E390E03C870E94C3
:100BE00049063C8532FF17C031FD03C088E790E01D
:100BF00002C088E590E0B7010CC0832F867859F0D9
:100C000031FF02C08BE201C080E237FD8DE2B70107
:100C100090E00E944906A51438F4B70180E390E003
:100C20000E9449065A94F7CFAA94F401EA0DF11DE7
:100C30008081B70190E00E944906A110F5CF3320D2
:100C400009F451CEB70180E290E00E9449063A943F
:100C5000F6CFF7018681978102C08FEF9FEF2C9628
:100C6000E2E10C94FB06FC0105906150704001101C
:100C7000D8F7809590958E0F9F1F0895FC016150C5
:100C8000704001900110D8F7809590958E0F9F1FAE
:100C900008950F931F93CF93DF93FB01238121FDD1
:100CA00003C08FEF9FEF28C022FF16C046815781F7
:100CB000248135814217530744F4A081B1819D01FD
:100CC0002F5F3F4F318320838C93268137812F5FA5
:100CD0003F4F3783268310C0EB01092F182F008464
:100CE000F185E02D0995892BE1F68E819F81019692
:100CF0009F838E83812F902FDF91CF911F910F9132
:100D00000895FA01AA27283051F1203181F1E894A1
:100D10006F936E7F6E5F7F4F8F4F9F4FAF4FB1E0EE
:100D20003ED0B4E03CD0670F781F891F9A1FA11DE9
:100D3000680F791F8A1F911DA11D6A0F711D811DEA
:100D4000911DA11D20D009F468943F912AE0269FAF
:100D500011243019305D3193DEF6CF010895462F0E
:100D60004770405D4193B3E00FD0C9F7F6CF462FEF
:100D70004F70405D4A3318F0495D31FD4052419358
:100D800002D0A9F7EACFB4E0A69597958795779515
:100D90006795BA95C9F700976105710508959B019C
:100DA000AC010A2E06945795479537952795BA9525
:100DB000C9F7620F731F841F951FA01D08952F92FE
:100DC0003F924F925F926F927F928F929F92AF92DB
:100DD000BF92CF92DF92EF92FF920F931F93CF9328
:100DE000DF93CDB7DEB7CA1BDB0B0FB6F894DEBFBF
:100DF0000FBECDBF09942A88398848885F846E84E5
:100E00007D848C849B84AA84B984C884DF80EE802E
:100E1000FD800C811B81AA81B981CE0FD11D0FB637
:100E2000F894DEBF0FBECDBFED010895F894FFCF5B
:100E3000436F756E7465723A00427574746F6E3AE2
:040E40000025640025
:00000001FF
