:100000000C942A000C943C000C943C000C943C0092
:100010000C943C000C943C000C943C000C943C0070
:100020000C943C000C943C000C943C000C943C0060
:100030000C943C000C943C000C943C000C943C0050
:100040000C943C000C943C000C943C000C943C0040
:100050000C943C0011241FBECFE5D4E0DEBFCDBF21
:1000600020E0A0E6B0E001C01D92A136B207E1F7A2
:100070000E94EC000C94F4000C9400000E94E0003C
:10008000813329F460E083E40E94C3000895803343
:1000900021F460E083E40E94C70008958FEF81BBE4
:1000A0008ABB84BB0895823419F118F4813439F085
:1000B00008958334B1F1843409F44CC00895442385
:1000C00059F02BB381E090E002C0880F991F6A9528
:1000D000E2F7822B8BBB08952BB381E090E002C046
:1000E000880F991F6A95E2F7809582238BBB08954C
:1000F000442359F028B381E090E002C0880F991F93
:100100006A95E2F7822B88BB089528B381E090E0DE
:1001100002C0880F991F6A95E2F78095822388BBF9
:100120000895442359F025B381E090E002C0880F80
:10013000991F6A95E2F7822B85BB089525B381E06C
:1001400090E002C0880F991F6A95E2F7809582239C
:1001500085BB0895442359F022B381E090E002C0AA
:10016000880F991F6A95E2F7822B82BB089522B30C
:1001700081E090E002C0880F991F6A95E2F78095B0
:10018000822382BB089541E00E945300089540E01D
:100190000E945300089518BA80936000813041F4A2
:1001A00087B3806B87BBC49A1EB881E58DB908956B
:1001B000BE9A87B38F7487BB1EB881E48DB908954A
:1001C00080916000813021F4779BFECF8FB108953C
:1001D000779BFECF8FB108950E944E0080E00E9471
:0C01E000CB000E943E00FDCFF894FFCF42
:00000001FF
