S01400005350495F4D41535445525F312E7372656369
S11300000C942A000C943C000C943C000C943C008E
S11300100C943C000C943C000C943C000C943C006C
S11300200C943C000C943C000C943C000C943C005C
S11300300C943C000C943C000C943C000C943C004C
S11300400C943C000C943C000C943C000C943C003C
S11300500C943C0011241FBECFE5D4E0DEBFCDBF1D
S113006020E0A0E6B0E001C01D92A136B207E1F79E
S11300700E94BD000C94D7000C9400000E944C0018
S1130080813021F481E30E94AF000895811103C0FF
S113009080E30E94AF00089560E084E40E945C0065
S11300A021E030E0019711F020E030E0C90108952B
S11300B011BA8FEF84BB08958234A9F018F4813407
S11300C031F035C08334D9F0843429F130C029B3F8
S11300D081E090E002C0880F991F6A95E2F730E052
S11300E082239323089526B381E090E002C0880F11
S11300F0991F6A95E2F730E082239323089523B38E
S113010081E090E002C0880F991F6A95E2F730E021
S113011082239323089520B381E090E002C0880FE6
S1130120991F6A95E2F730E082239323089580E0D3
S113013090E0089518BA80936000813041F487B349
S1130140806B87BBC49A1EB881E58DB90895BE9AA9
S113015087B38F7487BB1EB881E48DB908959091DD
S11301606000913031F4C4988FB9779BFECFC49A64
S113017008958FB9779BFECF08950E94580081E0BF
S11301800E949A002FEF89E698E121508040904028
S1130190E1F700C000002FEF84E39CE02150804091
S11301A09040E1F700C000000E943E00F4CFF894B4
S10501B0FFCF7B
S9030000FC
