S00C0000756172742E737265635C
S11300000C942A000C9434000C9434000C943400A6
S11300100C9434000C9434000C9434000C9434008C
S11300200C9434000C9434000C9434000C9434007C
S11300300C9434000C9434000C9434000C9434006C
S11300400C9434000C9434000C9434000C9434005C
S11300500C94340011241FBECFE5D4E0DEBFCDBF25
S11300600E9436000C947A000C94000080E895E21B
S11300700E943F000E9454000E945000FBCF9C014C
S113008040E050E060E271EA87E090E00E945800AE
S11300902150310930BD29B98AB188618AB90895DE
S11300A05D9BFECF8CB908955F9BFECF8CB1089504
S11300B0A1E21A2EAA1BBB1BFD010DC0AA1FBB1F68
S11300C0EE1FFF1FA217B307E407F50720F0A21BDA
S11300D0B30BE40BF50B661F771F881F991F1A9447
S11300E069F760957095809590959B01AC01BD0171
S10B00F0CF010895F894FFCF3D
S9030000FC
