S01100007370695F736C6176652E737265634D
S11300000C942A000C9447000C9447000C9447006D
S11300100C9447000C9447000C9447000C94470040
S11300200C9447000C9447000C9447000C94470030
S11300300C9447000C9447000C9447000C94470020
S11300400C9447000C9447000C9447000C941A033A
S11300500C94470011241FBECFE5D4E0DEBFCDBF12
S113006010E0A0E6B0E0E6E3FCE002C005900D92EB
S1130070A437B107D9F720E0A4E7B0E001C01D928E
S1130080AC37B207E1F70E94B7020C9419060C943E
S1130090000040E060E880E690E00E949F0240E0BB
S11300A060EC89E690E00E949F020895EF92FF922F
S11300B00F931F93CF93DF9300D000D01F92CDB73F
S11300C0DEB70E94F402823619F0833631F009C09B
S11300D00E94F4028093750004C00E94F40280938D
S11300E07400809174001F928F930F2EF1E7EF2E0E
S11300F0F0E0FF2EF02DFF92EF928E010F5F1F4F65
S11301001F930F930E94410348E060E8C8010E94D6
S11301109F02809175001F928F93FF92EF921F931D
S11301200F930E94410348E060ECC8010E949F02C3
S11301300FB6F894DEBF0FBECDBF0F900F900F9097
S11301400F900F90DF91CF911F910F91FF90EF903F
S113015008959FEF94BB15BA80EF8ABB1BBA87B38F
S1130160836087BB91BB12BA0895823459F018F4A6
S1130170813431F00DC0833439F0843439F008C04F
S113018089B3089586B3089583B3089580B3089519
S113019080E00895623419F118F4613439F0089557
S11301A06334B1F1643409F44CC00895882359F0E0
S11301B02BB381E090E002C0880F991F4A95E2F7C3
S11301C0822B8BBB08952BB381E090E002C0880F93
S11301D0991F4A95E2F7809582238BBB0895882363
S11301E059F028B381E090E002C0880F991F4A9526
S11301F0E2F7822B88BB089528B381E090E002C027
S1130200880F991F4A95E2F78095822388BB089549
S1130210882359F025B381E090E002C0880F991F2C
S11302204A95E2F7822B85BB089525B381E090E0DF
S113023002C0880F991F4A95E2F78095822385BBF7
S11302400895882359F022B381E090E002C0880F1A
S1130250991F4A95E2F7822B82BB089522B381E06D
S113026090E002C0880F991F4A95E2F78095822397
S113027082BB0895623479F018F4613431F0089542
S1130280633479F0643499F00895882311F08BBBBA
S113029008951BBA0895882311F088BB089518BAED
S11302A00895882311F085BB089515BA089588230D
S11302B011F082BB089512BA0895CF93C82F90917C
S11302C07600992319F0913031F171C040E062E475
S11302D080E00E94CA0061E48C2F0E943A0141E050
S11302E062E480E00E94CA0040E062E481E00E948F
S11302F0CA008FEC97E00197F1F700C0000040E0DE
S113030062E480E00E94CA008FED9EE20197F1F75B
S113031000C000004CC040E062E480E00E94CA00DB
S113032081E40E94B5008F709C2F907F61E4892B3B
S11303300E943A0141E062E480E00E94CA0040E089
S113034062E481E00E94CA008FEC97E00197F1F724
S113035000C0000040E062E480E00E94CA008FED2B
S11303609EE20197F1F700C0000081E40E94B5000D
S11303708F7090E1C99F9001112461E4822B0E9447
S11303803A0140E062E481E00E94CA008FEC97E009
S11303900197F1F700C0000040E062E480E00E94B1
S11303A0CA008FED9EE20197F1F700C00000CF91E3
S11303B00895EFE3FCE93197F1F700C00000809362
S11303C07600882319F08130D1F0089580E30E94EB
S11303D05D0188E30E945D018EE00E945D0186E07C
S11303E00E945D0181E00E945D018FE99FE0019719
S11303F0F1F700C0000080E80E945D01089582E0EA
S11304000E945D0188E20E945D018EE00E945D0110
S113041086E00E945D0181E00E945D01EFE9FFE05A
S11304203197F1F700C0000080E80E945D01089553
S1130430CF93C82F90917600992319F0913031F120
S113044071C040E062E480E00E94CA0061E48C2F45
S11304500E943A0141E062E481E00E94CA0040E067
S113046062E481E00E94CA008FEC97E00197F1F703
S113047000C0000040E062E480E00E94CA008FEC0B
S113048097E00197F1F700C000004CC040E062E43F
S113049080E00E94CA0081E40E94B5008F709C2F06
S11304A0907F61E4892B0E943A0141E062E481E09B
S11304B00E94CA0040E062E481E00E94CA008FEC1E
S11304C097E00197F1F700C0000040E062E480E0AB
S11304D00E94CA008FEC97E00197F1F700C000007A
S11304E040E062E481E00E94CA0081E40E94B50019
S11304F08F7090E1C99F9001112461E4822B0E94C6
S11305003A018FEC97E00197F1F700C0000040E05A
S113051062E480E00E94CA008FEC97E00197F1F753
S113052000C00000CF910895CF93C82F862F842B4D
S11305300E945D018C2F0E941802CF9108950F93A1
S11305401F93CF93DF93EC01062F8881882351F00A
S1130550219611E0140F602F0E9494028991412F7B
S11305608111F7CFDF91CF911F910F9108950E94D0
S1130570C2020E94D102FDCF809178008F5F8093E8
S1130580780008950E94A9008CEB92E00E94FE027C
S113059081E00E94D90181E00E94E0020E944900AA
S11305A008958091780080FD0AC0909177008917A2
S11305B031F00E945600809178008093770008956E
S11305C080937900882319F0813041F00BC087B300
S11305D0806B87BBC49ABE986C9A04C0BE9A87B3DA
S11305E08F7487BB6E9A089580917900811102C03F
S11305F08FEF8FB9779BFECF8FB1089523B721601A
S113060023BF23B72D7F23BF23B7246023BF29B77C
S1130610226029BF23B72F7B23BF23B7286023BFC2
S11306202AE02CBF2FB720682FBF90937B008093C4
S11306307A0008951F920F920FB60F9211242F93F0
S11306403F934F935F936F937F938F939F93AF9356
S1130650BF93EF93FF93E0917A00F0917B000995AB
S1130660FF91EF91BF91AF919F918F917F916F9186
S11306705F914F913F912F910F900FBE0F901F905C
S11306801895AEE0B0E0E7E4F3E00C94F0050D89D2
S11306901E8986E08C831A8309838FEF9FE79E83EC
S11306A08D83AE01475E5F4F6F89788DCE010196D1
S11306B00E9464032F813885F801E20FF31F108232
S11306C02E96E4E00C940C06ACE0B0E0EAE6F3E02D
S11306D00C94E2057C016B018A01FC0117821682ED
S11306E0838181FFBDC1CE0101964C01F701938145
S11306F0F60193FD859193FF81916F01882309F49D
S1130700ABC1853239F493FD859193FF81916F01DB
S1130710853229F4B70190E00E944C05E7CF512CB3
S1130720312C20E02032A0F48B3269F030F4803296
S113073059F0833269F420612CC08D3239F0803352
S113074039F4216026C02260246023C0286021C0BF
S113075027FD27C030ED380F3A3078F426FF06C065
S1130760FAE05F9E300D1124532E13C08AE0389EA8
S1130770300D1124332E20620CC08E3221F426FD5C
S11307806BC1206406C08C3611F4206802C0883620
S113079041F4F60193FD859193FF81916F018111DD
S11307A0C1CF982F9F7D9554933028F40C5F1F4F31
S11307B0FFE3F9830DC0833631F0833771F083355D
S11307C009F05BC022C0F801808189830E5F1F4F4E
S11307D044244394512C540115C03801F2E06F0EA7
S11307E0711CF801A080B18026FF03C0652D70E064
S11307F002C06FEF7FEFC5012C870E9441052C01D9
S113080083012C852F77222E17C03801F2E06F0E5A
S1130810711CF801A080B18026FF03C0652D70E033
S113082002C06FEF7FEFC5012C870E9436052C01B3
S11308302C852068222E830123FC1BC0832D90E08D
S113084048165906B0F4B70180E290E00E944C05C6
S11308503A94F4CFF50127FC859127FE81915F013D
S1130860B70190E00E944C0531103A94F1E04F1A20
S113087051084114510471F7E5C0843611F08936EA
S113088039F5F80127FF07C0608171818281938166
S11308900C5F1F4F08C060817181072E000C880B0C
S11308A0990B0E5F1F4F2F76722E97FF09C09095FC
S11308B08095709561957F4F8F4F9F4F2068722E62
S11308C02AE030E0A4010E948405A82EA81844C0A0
S11308D0853729F42F7EB22E2AE030E025C0F22F8E
S11308E0F97FBF2E8F36C1F018F4883579F0B4C083
S11308F0803719F0883721F0AFC02F2F2061B22E36
S1130900B4FE0DC08B2D8460B82E09C024FF0AC02C
S11309109F2F9660B92E06C028E030E005C020E184
S113092030E002C020E132E0F801B7FE07C0608188
S11309307181828193810C5F1F4F06C06081718138
S113094080E090E00E5F1F4FA4010E948405A82E52
S1130950A818FB2DFF777F2E76FE0BC0372D3E7F28
S1130960A51450F474FE0AC072FC08C0372D3E7EF4
S113097005C0BA2C372D03C0BA2C01C0B52C34FFE6
S11309800DC0FE01EA0DF11D8081803311F4397E22
S113099009C032FF06C0B394B39404C0832F867891
S11309A009F0B39433FD13C030FF06C05A2CB314BE
S11309B018F4530C5B18B32CB31468F4B70180E239
S11309C090E03C870E944C05B3943C85F5CFB3146A
S11309D010F43B1801C0312C34FF12C0B70180E37E
S11309E090E03C870E944C053C8532FF17C031FDE6
S11309F003C088E790E002C088E590E0B7010CC02E
S1130A00832F867859F031FF02C08BE201C080E267
S1130A1037FD8DE2B70190E00E944C05A51438F42F
S1130A20B70180E390E00E944C055A94F7CFAA9452
S1130A30F401EA0DF11D8081B70190E00E944C059C
S1130A40A110F5CF332009F451CEB70180E290E034
S1130A500E944C053A94F6CFF7018681978102C033
S1130A608FEF9FEF2C96E2E10C94FE05FC010590BC
S1130A70615070400110D8F7809590958E0F9F1F9C
S1130A800895FC016150704001900110D8F78095E1
S1130A9090958E0F9F1F08950F931F93CF93DF930D
S1130AA0FB01238121FD03C08FEF9FEF28C022FFAC
S1130AB016C046815781248135814217530744F477
S1130AC0A081B1819D012F5F3F4F318320838C939F
S1130AD0268137812F5F3F4F3783268310C0EB0178
S1130AE0092F182F0084F185E02D0995892BE1F653
S1130AF08E819F8101969F838E83812F902FDF911A
S1130B00CF911F910F910895FA01AA27283051F12E
S1130B10203181F1E8946F936E7F6E5F7F4F8F4F2A
S1130B209F4FAF4FB1E03ED0B4E03CD0670F781F89
S1130B30891F9A1FA11D680F791F8A1F911DA11D6E
S1130B406A0F711D811D911DA11D20D009F46894A7
S1130B503F912AE0269F11243019305D3193DEF64F
S1130B60CF010895462F4770405D4193B3E00FD005
S1130B70C9F7F6CF462F4F70405D4A3318F0495DF0
S1130B8031FD4052419302D0A9F7EACFB4E0A695D3
S1130B909795879577956795BA95C9F700976105F5
S1130BA0710508959B01AC010A2E0694579547954B
S1130BB037952795BA95C9F7620F731F841F951F40
S1130BC0A01D08952F923F924F925F926F927F9251
S1130BD08F929F92AF92BF92CF92DF92EF92FF9249
S1130BE00F931F93CF93DF93CDB7DEB7CA1BDB0BF5
S1130BF00FB6F894DEBF0FBECDBF09942A8839889A
S1130C0048885F846E847D848C849B84AA84B984A0
S1130C10C884DF80EE80FD800C811B81AA81B981AC
S1130C20CE0FD11D0FB6F894DEBF0FBECDBFED01C0
S1090C300895F894FFCFC3
S1130C36436F756E7465723A00427574746F6E3ADA
S1070C46002564001D
S9030000FC
